{
  "contractName": "FXControllableToken",
  "abi": [
    {
      "inputs": [],
      "stateMutability": "nonpayable",
      "type": "constructor"
    },
    {
      "anonymous": false,
      "inputs": [
        {
          "indexed": true,
          "internalType": "address",
          "name": "owner",
          "type": "address"
        },
        {
          "indexed": true,
          "internalType": "address",
          "name": "spender",
          "type": "address"
        },
        {
          "indexed": false,
          "internalType": "uint256",
          "name": "value",
          "type": "uint256"
        }
      ],
      "name": "Approval",
      "type": "event"
    },
    {
      "anonymous": false,
      "inputs": [
        {
          "indexed": false,
          "internalType": "address",
          "name": "account",
          "type": "address"
        }
      ],
      "name": "Paused",
      "type": "event"
    },
    {
      "anonymous": false,
      "inputs": [
        {
          "indexed": true,
          "internalType": "bytes32",
          "name": "role",
          "type": "bytes32"
        },
        {
          "indexed": true,
          "internalType": "bytes32",
          "name": "previousAdminRole",
          "type": "bytes32"
        },
        {
          "indexed": true,
          "internalType": "bytes32",
          "name": "newAdminRole",
          "type": "bytes32"
        }
      ],
      "name": "RoleAdminChanged",
      "type": "event"
    },
    {
      "anonymous": false,
      "inputs": [
        {
          "indexed": true,
          "internalType": "bytes32",
          "name": "role",
          "type": "bytes32"
        },
        {
          "indexed": true,
          "internalType": "address",
          "name": "account",
          "type": "address"
        },
        {
          "indexed": true,
          "internalType": "address",
          "name": "sender",
          "type": "address"
        }
      ],
      "name": "RoleGranted",
      "type": "event"
    },
    {
      "anonymous": false,
      "inputs": [
        {
          "indexed": true,
          "internalType": "bytes32",
          "name": "role",
          "type": "bytes32"
        },
        {
          "indexed": true,
          "internalType": "address",
          "name": "account",
          "type": "address"
        },
        {
          "indexed": true,
          "internalType": "address",
          "name": "sender",
          "type": "address"
        }
      ],
      "name": "RoleRevoked",
      "type": "event"
    },
    {
      "anonymous": false,
      "inputs": [
        {
          "indexed": true,
          "internalType": "address",
          "name": "from",
          "type": "address"
        },
        {
          "indexed": true,
          "internalType": "address",
          "name": "to",
          "type": "address"
        },
        {
          "indexed": false,
          "internalType": "uint256",
          "name": "value",
          "type": "uint256"
        }
      ],
      "name": "Transfer",
      "type": "event"
    },
    {
      "anonymous": false,
      "inputs": [
        {
          "indexed": false,
          "internalType": "address",
          "name": "account",
          "type": "address"
        }
      ],
      "name": "Unpaused",
      "type": "event"
    },
    {
      "inputs": [],
      "name": "DEFAULT_ADMIN_ROLE",
      "outputs": [
        {
          "internalType": "bytes32",
          "name": "",
          "type": "bytes32"
        }
      ],
      "stateMutability": "view",
      "type": "function",
      "constant": true
    },
    {
      "inputs": [],
      "name": "DOMAIN_SEPARATOR",
      "outputs": [
        {
          "internalType": "bytes32",
          "name": "",
          "type": "bytes32"
        }
      ],
      "stateMutability": "view",
      "type": "function",
      "constant": true
    },
    {
      "inputs": [],
      "name": "MINTER_ROLE",
      "outputs": [
        {
          "internalType": "bytes32",
          "name": "",
          "type": "bytes32"
        }
      ],
      "stateMutability": "view",
      "type": "function",
      "constant": true
    },
    {
      "inputs": [],
      "name": "PAUSER_ROLE",
      "outputs": [
        {
          "internalType": "bytes32",
          "name": "",
          "type": "bytes32"
        }
      ],
      "stateMutability": "view",
      "type": "function",
      "constant": true
    },
    {
      "inputs": [
        {
          "internalType": "address",
          "name": "owner",
          "type": "address"
        },
        {
          "internalType": "address",
          "name": "spender",
          "type": "address"
        }
      ],
      "name": "allowance",
      "outputs": [
        {
          "internalType": "uint256",
          "name": "",
          "type": "uint256"
        }
      ],
      "stateMutability": "view",
      "type": "function",
      "constant": true
    },
    {
      "inputs": [
        {
          "internalType": "address",
          "name": "spender",
          "type": "address"
        },
        {
          "internalType": "uint256",
          "name": "amount",
          "type": "uint256"
        }
      ],
      "name": "approve",
      "outputs": [
        {
          "internalType": "bool",
          "name": "",
          "type": "bool"
        }
      ],
      "stateMutability": "nonpayable",
      "type": "function"
    },
    {
      "inputs": [
        {
          "internalType": "address",
          "name": "account",
          "type": "address"
        }
      ],
      "name": "balanceOf",
      "outputs": [
        {
          "internalType": "uint256",
          "name": "",
          "type": "uint256"
        }
      ],
      "stateMutability": "view",
      "type": "function",
      "constant": true
    },
    {
      "inputs": [
        {
          "internalType": "uint256",
          "name": "amount",
          "type": "uint256"
        }
      ],
      "name": "burn",
      "outputs": [],
      "stateMutability": "nonpayable",
      "type": "function"
    },
    {
      "inputs": [
        {
          "internalType": "address",
          "name": "account",
          "type": "address"
        },
        {
          "internalType": "uint256",
          "name": "amount",
          "type": "uint256"
        }
      ],
      "name": "burnFrom",
      "outputs": [],
      "stateMutability": "nonpayable",
      "type": "function"
    },
    {
      "inputs": [],
      "name": "decimals",
      "outputs": [
        {
          "internalType": "uint8",
          "name": "",
          "type": "uint8"
        }
      ],
      "stateMutability": "view",
      "type": "function",
      "constant": true
    },
    {
      "inputs": [
        {
          "internalType": "address",
          "name": "spender",
          "type": "address"
        },
        {
          "internalType": "uint256",
          "name": "subtractedValue",
          "type": "uint256"
        }
      ],
      "name": "decreaseAllowance",
      "outputs": [
        {
          "internalType": "bool",
          "name": "",
          "type": "bool"
        }
      ],
      "stateMutability": "nonpayable",
      "type": "function"
    },
    {
      "inputs": [
        {
          "internalType": "bytes32",
          "name": "role",
          "type": "bytes32"
        }
      ],
      "name": "getRoleAdmin",
      "outputs": [
        {
          "internalType": "bytes32",
          "name": "",
          "type": "bytes32"
        }
      ],
      "stateMutability": "view",
      "type": "function",
      "constant": true
    },
    {
      "inputs": [
        {
          "internalType": "bytes32",
          "name": "role",
          "type": "bytes32"
        },
        {
          "internalType": "address",
          "name": "account",
          "type": "address"
        }
      ],
      "name": "grantRole",
      "outputs": [],
      "stateMutability": "nonpayable",
      "type": "function"
    },
    {
      "inputs": [
        {
          "internalType": "bytes32",
          "name": "role",
          "type": "bytes32"
        },
        {
          "internalType": "address",
          "name": "account",
          "type": "address"
        }
      ],
      "name": "hasRole",
      "outputs": [
        {
          "internalType": "bool",
          "name": "",
          "type": "bool"
        }
      ],
      "stateMutability": "view",
      "type": "function",
      "constant": true
    },
    {
      "inputs": [
        {
          "internalType": "address",
          "name": "spender",
          "type": "address"
        },
        {
          "internalType": "uint256",
          "name": "addedValue",
          "type": "uint256"
        }
      ],
      "name": "increaseAllowance",
      "outputs": [
        {
          "internalType": "bool",
          "name": "",
          "type": "bool"
        }
      ],
      "stateMutability": "nonpayable",
      "type": "function"
    },
    {
      "inputs": [],
      "name": "name",
      "outputs": [
        {
          "internalType": "string",
          "name": "",
          "type": "string"
        }
      ],
      "stateMutability": "view",
      "type": "function",
      "constant": true
    },
    {
      "inputs": [
        {
          "internalType": "address",
          "name": "owner",
          "type": "address"
        }
      ],
      "name": "nonces",
      "outputs": [
        {
          "internalType": "uint256",
          "name": "",
          "type": "uint256"
        }
      ],
      "stateMutability": "view",
      "type": "function",
      "constant": true
    },
    {
      "inputs": [],
      "name": "paused",
      "outputs": [
        {
          "internalType": "bool",
          "name": "",
          "type": "bool"
        }
      ],
      "stateMutability": "view",
      "type": "function",
      "constant": true
    },
    {
      "inputs": [
        {
          "internalType": "address",
          "name": "owner",
          "type": "address"
        },
        {
          "internalType": "address",
          "name": "spender",
          "type": "address"
        },
        {
          "internalType": "uint256",
          "name": "value",
          "type": "uint256"
        },
        {
          "internalType": "uint256",
          "name": "deadline",
          "type": "uint256"
        },
        {
          "internalType": "uint8",
          "name": "v",
          "type": "uint8"
        },
        {
          "internalType": "bytes32",
          "name": "r",
          "type": "bytes32"
        },
        {
          "internalType": "bytes32",
          "name": "s",
          "type": "bytes32"
        }
      ],
      "name": "permit",
      "outputs": [],
      "stateMutability": "nonpayable",
      "type": "function"
    },
    {
      "inputs": [
        {
          "internalType": "bytes32",
          "name": "role",
          "type": "bytes32"
        },
        {
          "internalType": "address",
          "name": "account",
          "type": "address"
        }
      ],
      "name": "renounceRole",
      "outputs": [],
      "stateMutability": "nonpayable",
      "type": "function"
    },
    {
      "inputs": [
        {
          "internalType": "bytes32",
          "name": "role",
          "type": "bytes32"
        },
        {
          "internalType": "address",
          "name": "account",
          "type": "address"
        }
      ],
      "name": "revokeRole",
      "outputs": [],
      "stateMutability": "nonpayable",
      "type": "function"
    },
    {
      "inputs": [
        {
          "internalType": "bytes4",
          "name": "interfaceId",
          "type": "bytes4"
        }
      ],
      "name": "supportsInterface",
      "outputs": [
        {
          "internalType": "bool",
          "name": "",
          "type": "bool"
        }
      ],
      "stateMutability": "view",
      "type": "function",
      "constant": true
    },
    {
      "inputs": [],
      "name": "symbol",
      "outputs": [
        {
          "internalType": "string",
          "name": "",
          "type": "string"
        }
      ],
      "stateMutability": "view",
      "type": "function",
      "constant": true
    },
    {
      "inputs": [],
      "name": "totalSupply",
      "outputs": [
        {
          "internalType": "uint256",
          "name": "",
          "type": "uint256"
        }
      ],
      "stateMutability": "view",
      "type": "function",
      "constant": true
    },
    {
      "inputs": [
        {
          "internalType": "address",
          "name": "to",
          "type": "address"
        },
        {
          "internalType": "uint256",
          "name": "amount",
          "type": "uint256"
        }
      ],
      "name": "transfer",
      "outputs": [
        {
          "internalType": "bool",
          "name": "",
          "type": "bool"
        }
      ],
      "stateMutability": "nonpayable",
      "type": "function"
    },
    {
      "inputs": [
        {
          "internalType": "address",
          "name": "from",
          "type": "address"
        },
        {
          "internalType": "address",
          "name": "to",
          "type": "address"
        },
        {
          "internalType": "uint256",
          "name": "amount",
          "type": "uint256"
        }
      ],
      "name": "transferFrom",
      "outputs": [
        {
          "internalType": "bool",
          "name": "",
          "type": "bool"
        }
      ],
      "stateMutability": "nonpayable",
      "type": "function"
    },
    {
      "inputs": [],
      "name": "pause",
      "outputs": [],
      "stateMutability": "nonpayable",
      "type": "function"
    },
    {
      "inputs": [],
      "name": "unpause",
      "outputs": [],
      "stateMutability": "nonpayable",
      "type": "function"
    },
    {
      "inputs": [
        {
          "internalType": "address",
          "name": "to",
          "type": "address"
        },
        {
          "internalType": "uint256",
          "name": "amount",
          "type": "uint256"
        }
      ],
      "name": "mint",
      "outputs": [],
      "stateMutability": "nonpayable",
      "type": "function"
    }
  ],
  "bytecode": "0x6101406040523480156200001257600080fd5b506040518060400160405280601381526020017f4658436f6e74726f6c6c61626c65546f6b656e00000000000000000000000000815250806040518060400160405280600181526020017f31000000000000000000000000000000000000000000000000000000000000008152506040518060400160405280601381526020017f4658436f6e74726f6c6c61626c65546f6b656e000000000000000000000000008152506040518060400160405280600381526020017f465843000000000000000000000000000000000000000000000000000000000081525081600390805190602001906200010492919062000672565b5080600490805190602001906200011d92919062000672565b5050506000600560006101000a81548160ff02191690831515021790555060008280519060200120905060008280519060200120905060007f8b73c3c69bb8fe3d512ecc4cf759cc79239f7b179b0ffacaa9a75d522b39400f90508260e081815250508161010081815250504660a08181525050620001a4818484620002ad60201b60201c565b608081815250503073ffffffffffffffffffffffffffffffffffffffff1660c08173ffffffffffffffffffffffffffffffffffffffff1681525050806101208181525050505050505050620002036000801b33620002e960201b60201c565b620002357f65d7a28e3265b37a6474929f336521b332c1681b933f6cb9f3376673440d862a33620002e960201b60201c565b62000275336200024a620003db60201b60201c565b600a620002589190620008bc565b6305f5e1006200026991906200090d565b620003e460201b60201c565b620002a77f9f2df0fed2c77648de5860a4cc508cd0818c85b8b8a1ab4ceeef8d981c8956a633620002e960201b60201c565b62000c0f565b60008383834630604051602001620002ca959493929190620009df565b6040516020818303038152906040528051906020012090509392505050565b620002fb82826200055c60201b60201c565b620003d75760016006600084815260200190815260200160002060000160008373ffffffffffffffffffffffffffffffffffffffff1673ffffffffffffffffffffffffffffffffffffffff16815260200190815260200160002060006101000a81548160ff0219169083151502179055506200037c620005c760201b60201c565b73ffffffffffffffffffffffffffffffffffffffff168173ffffffffffffffffffffffffffffffffffffffff16837f2f8788117e7eff1d82e926ec794901d17c78024a50270940304540a733656f0d60405160405180910390a45b5050565b60006012905090565b600073ffffffffffffffffffffffffffffffffffffffff168273ffffffffffffffffffffffffffffffffffffffff160362000456576040517f08c379a00000000000000000000000000000000000000000000000000000000081526004016200044d9062000a9d565b60405180910390fd5b6200046a60008383620005cf60201b60201c565b80600260008282546200047e919062000abf565b92505081905550806000808473ffffffffffffffffffffffffffffffffffffffff1673ffffffffffffffffffffffffffffffffffffffff1681526020019081526020016000206000828254620004d5919062000abf565b925050819055508173ffffffffffffffffffffffffffffffffffffffff16600073ffffffffffffffffffffffffffffffffffffffff167fddf252ad1be2c89b69c2b068fc378daa952ba7f163c4a11628f55a4df523b3ef836040516200053c919062000b1c565b60405180910390a36200055860008383620005fc60201b60201c565b5050565b60006006600084815260200190815260200160002060000160008373ffffffffffffffffffffffffffffffffffffffff1673ffffffffffffffffffffffffffffffffffffffff16815260200190815260200160002060009054906101000a900460ff16905092915050565b600033905090565b620005df6200060160201b60201c565b620005f78383836200065660201b62000d9b1760201c565b505050565b505050565b620006116200065b60201b60201c565b1562000654576040517f08c379a00000000000000000000000000000000000000000000000000000000081526004016200064b9062000b89565b60405180910390fd5b565b505050565b6000600560009054906101000a900460ff16905090565b828054620006809062000bda565b90600052602060002090601f016020900481019282620006a45760008555620006f0565b82601f10620006bf57805160ff1916838001178555620006f0565b82800160010185558215620006f0579182015b82811115620006ef578251825591602001919060010190620006d2565b5b509050620006ff919062000703565b5090565b5b808211156200071e57600081600090555060010162000704565b5090565b7f4e487b7100000000000000000000000000000000000000000000000000000000600052601160045260246000fd5b60008160011c9050919050565b6000808291508390505b6001851115620007b05780860481111562000788576200078762000722565b5b6001851615620007985780820291505b8081029050620007a88562000751565b945062000768565b94509492505050565b600082620007cb57600190506200089e565b81620007db57600090506200089e565b8160018114620007f45760028114620007ff5762000835565b60019150506200089e565b60ff84111562000814576200081362000722565b5b8360020a9150848211156200082e576200082d62000722565b5b506200089e565b5060208310610133831016604e8410600b84101617156200086f5782820a90508381111562000869576200086862000722565b5b6200089e565b6200087e84848460016200075e565b9250905081840481111562000898576200089762000722565b5b81810290505b9392505050565b6000819050919050565b600060ff82169050919050565b6000620008c982620008a5565b9150620008d683620008af565b9250620009057fffffffffffffffffffffffffffffffffffffffffffffffffffffffffffffffff8484620007b9565b905092915050565b60006200091a82620008a5565b91506200092783620008a5565b9250817fffffffffffffffffffffffffffffffffffffffffffffffffffffffffffffffff048311821515161562000963576200096262000722565b5b828202905092915050565b6000819050919050565b62000983816200096e565b82525050565b6200099481620008a5565b82525050565b600073ffffffffffffffffffffffffffffffffffffffff82169050919050565b6000620009c7826200099a565b9050919050565b620009d981620009ba565b82525050565b600060a082019050620009f6600083018862000978565b62000a05602083018762000978565b62000a14604083018662000978565b62000a23606083018562000989565b62000a326080830184620009ce565b9695505050505050565b600082825260208201905092915050565b7f45524332303a206d696e7420746f20746865207a65726f206164647265737300600082015250565b600062000a85601f8362000a3c565b915062000a928262000a4d565b602082019050919050565b6000602082019050818103600083015262000ab88162000a76565b9050919050565b600062000acc82620008a5565b915062000ad983620008a5565b9250827fffffffffffffffffffffffffffffffffffffffffffffffffffffffffffffffff0382111562000b115762000b1062000722565b5b828201905092915050565b600060208201905062000b33600083018462000989565b92915050565b7f5061757361626c653a2070617573656400000000000000000000000000000000600082015250565b600062000b7160108362000a3c565b915062000b7e8262000b39565b602082019050919050565b6000602082019050818103600083015262000ba48162000b62565b9050919050565b7f4e487b7100000000000000000000000000000000000000000000000000000000600052602260045260246000fd5b6000600282049050600182168062000bf357607f821691505b60208210810362000c095762000c0862000bab565b5b50919050565b60805160a05160c05160e05161010051610120516135e562000c5f6000396000611489015260006114cb015260006114aa015260006113df015260006114350152600061145e01526135e56000f3fe608060405234801561001057600080fd5b50600436106101cf5760003560e01c80635c975abb11610104578063a217fddf116100a2578063d539139311610071578063d539139314610542578063d547741f14610560578063dd62ed3e1461057c578063e63ab1e9146105ac576101cf565b8063a217fddf146104a8578063a457c2d7146104c6578063a9059cbb146104f6578063d505accf14610526576101cf565b80637ecebe00116100de5780637ecebe00146104205780638456cb591461045057806391d148541461045a57806395d89b411461048a576101cf565b80635c975abb146103b657806370a08231146103d457806379cc679014610404576101cf565b8063313ce56711610171578063395093511161014b57806339509351146103445780633f4ba83a1461037457806340c10f191461037e57806342966c681461039a576101cf565b8063313ce567146102ec5780633644e5151461030a57806336568abe14610328576101cf565b806318160ddd116101ad57806318160ddd1461025257806323b872dd14610270578063248a9ca3146102a05780632f2ff15d146102d0576101cf565b806301ffc9a7146101d457806306fdde0314610204578063095ea7b314610222575b600080fd5b6101ee60048036038101906101e991906121c4565b6105ca565b6040516101fb919061220c565b60405180910390f35b61020c610644565b60405161021991906122c0565b60405180910390f35b61023c60048036038101906102379190612376565b6106d6565b604051610249919061220c565b60405180910390f35b61025a6106f9565b60405161026791906123c5565b60405180910390f35b61028a600480360381019061028591906123e0565b610703565b604051610297919061220c565b60405180910390f35b6102ba60048036038101906102b59190612469565b610732565b6040516102c791906124a5565b60405180910390f35b6102ea60048036038101906102e591906124c0565b610752565b005b6102f4610773565b604051610301919061251c565b60405180910390f35b61031261077c565b60405161031f91906124a5565b60405180910390f35b610342600480360381019061033d91906124c0565b61078b565b005b61035e60048036038101906103599190612376565b61080e565b60405161036b919061220c565b60405180910390f35b61037c610845565b005b61039860048036038101906103939190612376565b61087a565b005b6103b460048036038101906103af9190612537565b6108b3565b005b6103be6108c7565b6040516103cb919061220c565b60405180910390f35b6103ee60048036038101906103e99190612564565b6108de565b6040516103fb91906123c5565b60405180910390f35b61041e60048036038101906104199190612376565b610926565b005b61043a60048036038101906104359190612564565b610946565b60405161044791906123c5565b60405180910390f35b610458610996565b005b610474600480360381019061046f91906124c0565b6109cb565b604051610481919061220c565b60405180910390f35b610492610a36565b60405161049f91906122c0565b60405180910390f35b6104b0610ac8565b6040516104bd91906124a5565b60405180910390f35b6104e060048036038101906104db9190612376565b610acf565b6040516104ed919061220c565b60405180910390f35b610510600480360381019061050b9190612376565b610b46565b60405161051d919061220c565b60405180910390f35b610540600480360381019061053b91906125bd565b610b69565b005b61054a610cab565b60405161055791906124a5565b60405180910390f35b61057a600480360381019061057591906124c0565b610ccf565b005b6105966004803603810190610591919061265f565b610cf0565b6040516105a391906123c5565b60405180910390f35b6105b4610d77565b6040516105c191906124a5565b60405180910390f35b60007f7965db0b000000000000000000000000000000000000000000000000000000007bffffffffffffffffffffffffffffffffffffffffffffffffffffffff1916827bffffffffffffffffffffffffffffffffffffffffffffffffffffffff1916148061063d575061063c82610da0565b5b9050919050565b606060038054610653906126ce565b80601f016020809104026020016040519081016040528092919081815260200182805461067f906126ce565b80156106cc5780601f106106a1576101008083540402835291602001916106cc565b820191906000526020600020905b8154815290600101906020018083116106af57829003601f168201915b5050505050905090565b6000806106e1610e0a565b90506106ee818585610e12565b600191505092915050565b6000600254905090565b60008061070e610e0a565b905061071b858285610fdb565b610726858585611067565b60019150509392505050565b600060066000838152602001908152602001600020600101549050919050565b61075b82610732565b610764816112e6565b61076e83836112fa565b505050565b60006012905090565b60006107866113db565b905090565b610793610e0a565b73ffffffffffffffffffffffffffffffffffffffff168173ffffffffffffffffffffffffffffffffffffffff1614610800576040517f08c379a00000000000000000000000000000000000000000000000000000000081526004016107f790612771565b60405180910390fd5b61080a82826114f5565b5050565b600080610819610e0a565b905061083a81858561082b8589610cf0565b61083591906127c0565b610e12565b600191505092915050565b7f65d7a28e3265b37a6474929f336521b332c1681b933f6cb9f3376673440d862a61086f816112e6565b6108776115d7565b50565b7f9f2df0fed2c77648de5860a4cc508cd0818c85b8b8a1ab4ceeef8d981c8956a66108a4816112e6565b6108ae838361163a565b505050565b6108c46108be610e0a565b82611799565b50565b6000600560009054906101000a900460ff16905090565b60008060008373ffffffffffffffffffffffffffffffffffffffff1673ffffffffffffffffffffffffffffffffffffffff168152602001908152602001600020549050919050565b61093882610932610e0a565b83610fdb565b6109428282611799565b5050565b600061098f600760008473ffffffffffffffffffffffffffffffffffffffff1673ffffffffffffffffffffffffffffffffffffffff16815260200190815260200160002061196f565b9050919050565b7f65d7a28e3265b37a6474929f336521b332c1681b933f6cb9f3376673440d862a6109c0816112e6565b6109c861197d565b50565b60006006600084815260200190815260200160002060000160008373ffffffffffffffffffffffffffffffffffffffff1673ffffffffffffffffffffffffffffffffffffffff16815260200190815260200160002060009054906101000a900460ff16905092915050565b606060048054610a45906126ce565b80601f0160208091040260200160405190810160405280929190818152602001828054610a71906126ce565b8015610abe5780601f10610a9357610100808354040283529160200191610abe565b820191906000526020600020905b815481529060010190602001808311610aa157829003601f168201915b5050505050905090565b6000801b81565b600080610ada610e0a565b90506000610ae88286610cf0565b905083811015610b2d576040517f08c379a0000000000000000000000000000000000000000000000000000000008152600401610b2490612888565b60405180910390fd5b610b3a8286868403610e12565b60019250505092915050565b600080610b51610e0a565b9050610b5e818585611067565b600191505092915050565b83421115610bac576040517f08c379a0000000000000000000000000000000000000000000000000000000008152600401610ba3906128f4565b60405180910390fd5b60007f6e71edae12b1b97f4d1f60370fef10105fa2faae0126114a169c64845d6126c9888888610bdb8c6119e0565b89604051602001610bf196959493929190612923565b6040516020818303038152906040528051906020012090506000610c1482611a3e565b90506000610c2482878787611a58565b90508973ffffffffffffffffffffffffffffffffffffffff168173ffffffffffffffffffffffffffffffffffffffff1614610c94576040517f08c379a0000000000000000000000000000000000000000000000000000000008152600401610c8b906129d0565b60405180910390fd5b610c9f8a8a8a610e12565b50505050505050505050565b7f9f2df0fed2c77648de5860a4cc508cd0818c85b8b8a1ab4ceeef8d981c8956a681565b610cd882610732565b610ce1816112e6565b610ceb83836114f5565b505050565b6000600160008473ffffffffffffffffffffffffffffffffffffffff1673ffffffffffffffffffffffffffffffffffffffff16815260200190815260200160002060008373ffffffffffffffffffffffffffffffffffffffff1673ffffffffffffffffffffffffffffffffffffffff16815260200190815260200160002054905092915050565b7f65d7a28e3265b37a6474929f336521b332c1681b933f6cb9f3376673440d862a81565b505050565b60007f01ffc9a7000000000000000000000000000000000000000000000000000000007bffffffffffffffffffffffffffffffffffffffffffffffffffffffff1916827bffffffffffffffffffffffffffffffffffffffffffffffffffffffff1916149050919050565b600033905090565b600073ffffffffffffffffffffffffffffffffffffffff168373ffffffffffffffffffffffffffffffffffffffff1603610e81576040517f08c379a0000000000000000000000000000000000000000000000000000000008152600401610e7890612a62565b60405180910390fd5b600073ffffffffffffffffffffffffffffffffffffffff168273ffffffffffffffffffffffffffffffffffffffff1603610ef0576040517f08c379a0000000000000000000000000000000000000000000000000000000008152600401610ee790612af4565b60405180910390fd5b80600160008573ffffffffffffffffffffffffffffffffffffffff1673ffffffffffffffffffffffffffffffffffffffff16815260200190815260200160002060008473ffffffffffffffffffffffffffffffffffffffff1673ffffffffffffffffffffffffffffffffffffffff168152602001908152602001600020819055508173ffffffffffffffffffffffffffffffffffffffff168373ffffffffffffffffffffffffffffffffffffffff167f8c5be1e5ebec7d5bd14f71427d1e84f3dd0314c0f7b2291e5b200ac8c7c3b92583604051610fce91906123c5565b60405180910390a3505050565b6000610fe78484610cf0565b90507fffffffffffffffffffffffffffffffffffffffffffffffffffffffffffffffff81146110615781811015611053576040517f08c379a000000000000000000000000000000000000000000000000000000000815260040161104a90612b60565b60405180910390fd5b6110608484848403610e12565b5b50505050565b600073ffffffffffffffffffffffffffffffffffffffff168373ffffffffffffffffffffffffffffffffffffffff16036110d6576040517f08c379a00000000000000000000000000000000000000000000000000000000081526004016110cd90612bf2565b60405180910390fd5b600073ffffffffffffffffffffffffffffffffffffffff168273ffffffffffffffffffffffffffffffffffffffff1603611145576040517f08c379a000000000000000000000000000000000000000000000000000000000815260040161113c90612c84565b60405180910390fd5b611150838383611a83565b60008060008573ffffffffffffffffffffffffffffffffffffffff1673ffffffffffffffffffffffffffffffffffffffff168152602001908152602001600020549050818110156111d6576040517f08c379a00000000000000000000000000000000000000000000000000000000081526004016111cd90612d16565b60405180910390fd5b8181036000808673ffffffffffffffffffffffffffffffffffffffff1673ffffffffffffffffffffffffffffffffffffffff16815260200190815260200160002081905550816000808573ffffffffffffffffffffffffffffffffffffffff1673ffffffffffffffffffffffffffffffffffffffff168152602001908152602001600020600082825461126991906127c0565b925050819055508273ffffffffffffffffffffffffffffffffffffffff168473ffffffffffffffffffffffffffffffffffffffff167fddf252ad1be2c89b69c2b068fc378daa952ba7f163c4a11628f55a4df523b3ef846040516112cd91906123c5565b60405180910390a36112e0848484611a9b565b50505050565b6112f7816112f2610e0a565b611aa0565b50565b61130482826109cb565b6113d75760016006600084815260200190815260200160002060000160008373ffffffffffffffffffffffffffffffffffffffff1673ffffffffffffffffffffffffffffffffffffffff16815260200190815260200160002060006101000a81548160ff02191690831515021790555061137c610e0a565b73ffffffffffffffffffffffffffffffffffffffff168173ffffffffffffffffffffffffffffffffffffffff16837f2f8788117e7eff1d82e926ec794901d17c78024a50270940304540a733656f0d60405160405180910390a45b5050565b60007f000000000000000000000000000000000000000000000000000000000000000073ffffffffffffffffffffffffffffffffffffffff163073ffffffffffffffffffffffffffffffffffffffff1614801561145757507f000000000000000000000000000000000000000000000000000000000000000046145b15611484577f000000000000000000000000000000000000000000000000000000000000000090506114f2565b6114ef7f00000000000000000000000000000000000000000000000000000000000000007f00000000000000000000000000000000000000000000000000000000000000007f0000000000000000000000000000000000000000000000000000000000000000611b3d565b90505b90565b6114ff82826109cb565b156115d35760006006600084815260200190815260200160002060000160008373ffffffffffffffffffffffffffffffffffffffff1673ffffffffffffffffffffffffffffffffffffffff16815260200190815260200160002060006101000a81548160ff021916908315150217905550611578610e0a565b73ffffffffffffffffffffffffffffffffffffffff168173ffffffffffffffffffffffffffffffffffffffff16837ff6391f5c32d9c69d2a47ea670b442974b53935d1edc7fd64eb21e047a839171b60405160405180910390a45b5050565b6115df611b77565b6000600560006101000a81548160ff0219169083151502179055507f5db9ee0a495bf2e6ff9c91a7834c1ba4fdd244a5e8aa4e537bd38aeae4b073aa611623610e0a565b6040516116309190612d36565b60405180910390a1565b600073ffffffffffffffffffffffffffffffffffffffff168273ffffffffffffffffffffffffffffffffffffffff16036116a9576040517f08c379a00000000000000000000000000000000000000000000000000000000081526004016116a090612d9d565b60405180910390fd5b6116b560008383611a83565b80600260008282546116c791906127c0565b92505081905550806000808473ffffffffffffffffffffffffffffffffffffffff1673ffffffffffffffffffffffffffffffffffffffff168152602001908152602001600020600082825461171c91906127c0565b925050819055508173ffffffffffffffffffffffffffffffffffffffff16600073ffffffffffffffffffffffffffffffffffffffff167fddf252ad1be2c89b69c2b068fc378daa952ba7f163c4a11628f55a4df523b3ef8360405161178191906123c5565b60405180910390a361179560008383611a9b565b5050565b600073ffffffffffffffffffffffffffffffffffffffff168273ffffffffffffffffffffffffffffffffffffffff1603611808576040517f08c379a00000000000000000000000000000000000000000000000000000000081526004016117ff90612e2f565b60405180910390fd5b61181482600083611a83565b60008060008473ffffffffffffffffffffffffffffffffffffffff1673ffffffffffffffffffffffffffffffffffffffff1681526020019081526020016000205490508181101561189a576040517f08c379a000000000000000000000000000000000000000000000000000000000815260040161189190612ec1565b60405180910390fd5b8181036000808573ffffffffffffffffffffffffffffffffffffffff1673ffffffffffffffffffffffffffffffffffffffff1681526020019081526020016000208190555081600260008282546118f19190612ee1565b92505081905550600073ffffffffffffffffffffffffffffffffffffffff168373ffffffffffffffffffffffffffffffffffffffff167fddf252ad1be2c89b69c2b068fc378daa952ba7f163c4a11628f55a4df523b3ef8460405161195691906123c5565b60405180910390a361196a83600084611a9b565b505050565b600081600001549050919050565b611985611bc0565b6001600560006101000a81548160ff0219169083151502179055507f62e78cea01bee320cd4e420270b5ea74000d11b0c9f74754ebdbfc544b05a2586119c9610e0a565b6040516119d69190612d36565b60405180910390a1565b600080600760008473ffffffffffffffffffffffffffffffffffffffff1673ffffffffffffffffffffffffffffffffffffffff1681526020019081526020016000209050611a2d8161196f565b9150611a3881611c0a565b50919050565b6000611a51611a4b6113db565b83611c20565b9050919050565b6000806000611a6987878787611c53565b91509150611a7681611d5f565b8192505050949350505050565b611a8b611bc0565b611a96838383610d9b565b505050565b505050565b611aaa82826109cb565b611b3957611acf8173ffffffffffffffffffffffffffffffffffffffff166014611f2b565b611add8360001c6020611f2b565b604051602001611aee929190612fe9565b6040516020818303038152906040526040517f08c379a0000000000000000000000000000000000000000000000000000000008152600401611b3091906122c0565b60405180910390fd5b5050565b60008383834630604051602001611b58959493929190613023565b6040516020818303038152906040528051906020012090509392505050565b611b7f6108c7565b611bbe576040517f08c379a0000000000000000000000000000000000000000000000000000000008152600401611bb5906130c2565b60405180910390fd5b565b611bc86108c7565b15611c08576040517f08c379a0000000000000000000000000000000000000000000000000000000008152600401611bff9061312e565b60405180910390fd5b565b6001816000016000828254019250508190555050565b60008282604051602001611c359291906131bb565b60405160208183030381529060405280519060200120905092915050565b6000807f7fffffffffffffffffffffffffffffff5d576e7357a4501ddfe92f46681b20a08360001c1115611c8e576000600391509150611d56565b601b8560ff1614158015611ca65750601c8560ff1614155b15611cb8576000600491509150611d56565b600060018787878760405160008152602001604052604051611cdd94939291906131f2565b6020604051602081039080840390855afa158015611cff573d6000803e3d6000fd5b505050602060405103519050600073ffffffffffffffffffffffffffffffffffffffff168173ffffffffffffffffffffffffffffffffffffffff1603611d4d57600060019250925050611d56565b80600092509250505b94509492505050565b60006004811115611d7357611d72613237565b5b816004811115611d8657611d85613237565b5b0315611f285760016004811115611da057611d9f613237565b5b816004811115611db357611db2613237565b5b03611df3576040517f08c379a0000000000000000000000000000000000000000000000000000000008152600401611dea906132b2565b60405180910390fd5b60026004811115611e0757611e06613237565b5b816004811115611e1a57611e19613237565b5b03611e5a576040517f08c379a0000000000000000000000000000000000000000000000000000000008152600401611e519061331e565b60405180910390fd5b60036004811115611e6e57611e6d613237565b5b816004811115611e8157611e80613237565b5b03611ec1576040517f08c379a0000000000000000000000000000000000000000000000000000000008152600401611eb8906133b0565b60405180910390fd5b600480811115611ed457611ed3613237565b5b816004811115611ee757611ee6613237565b5b03611f27576040517f08c379a0000000000000000000000000000000000000000000000000000000008152600401611f1e90613442565b60405180910390fd5b5b50565b606060006002836002611f3e9190613462565b611f4891906127c0565b67ffffffffffffffff811115611f6157611f606134bc565b5b6040519080825280601f01601f191660200182016040528015611f935781602001600182028036833780820191505090505b5090507f300000000000000000000000000000000000000000000000000000000000000081600081518110611fcb57611fca6134eb565b5b60200101907effffffffffffffffffffffffffffffffffffffffffffffffffffffffffffff1916908160001a9053507f78000000000000000000000000000000000000000000000000000000000000008160018151811061202f5761202e6134eb565b5b60200101907effffffffffffffffffffffffffffffffffffffffffffffffffffffffffffff1916908160001a9053506000600184600261206f9190613462565b61207991906127c0565b90505b6001811115612119577f3031323334353637383961626364656600000000000000000000000000000000600f8616601081106120bb576120ba6134eb565b5b1a60f81b8282815181106120d2576120d16134eb565b5b60200101907effffffffffffffffffffffffffffffffffffffffffffffffffffffffffffff1916908160001a905350600485901c9450806121129061351a565b905061207c565b506000841461215d576040517f08c379a00000000000000000000000000000000000000000000000000000000081526004016121549061358f565b60405180910390fd5b8091505092915050565b600080fd5b60007fffffffff0000000000000000000000000000000000000000000000000000000082169050919050565b6121a18161216c565b81146121ac57600080fd5b50565b6000813590506121be81612198565b92915050565b6000602082840312156121da576121d9612167565b5b60006121e8848285016121af565b91505092915050565b60008115159050919050565b612206816121f1565b82525050565b600060208201905061222160008301846121fd565b92915050565b600081519050919050565b600082825260208201905092915050565b60005b83811015612261578082015181840152602081019050612246565b83811115612270576000848401525b50505050565b6000601f19601f8301169050919050565b600061229282612227565b61229c8185612232565b93506122ac818560208601612243565b6122b581612276565b840191505092915050565b600060208201905081810360008301526122da8184612287565b905092915050565b600073ffffffffffffffffffffffffffffffffffffffff82169050919050565b600061230d826122e2565b9050919050565b61231d81612302565b811461232857600080fd5b50565b60008135905061233a81612314565b92915050565b6000819050919050565b61235381612340565b811461235e57600080fd5b50565b6000813590506123708161234a565b92915050565b6000806040838503121561238d5761238c612167565b5b600061239b8582860161232b565b92505060206123ac85828601612361565b9150509250929050565b6123bf81612340565b82525050565b60006020820190506123da60008301846123b6565b92915050565b6000806000606084860312156123f9576123f8612167565b5b60006124078682870161232b565b93505060206124188682870161232b565b925050604061242986828701612361565b9150509250925092565b6000819050919050565b61244681612433565b811461245157600080fd5b50565b6000813590506124638161243d565b92915050565b60006020828403121561247f5761247e612167565b5b600061248d84828501612454565b91505092915050565b61249f81612433565b82525050565b60006020820190506124ba6000830184612496565b92915050565b600080604083850312156124d7576124d6612167565b5b60006124e585828601612454565b92505060206124f68582860161232b565b9150509250929050565b600060ff82169050919050565b61251681612500565b82525050565b6000602082019050612531600083018461250d565b92915050565b60006020828403121561254d5761254c612167565b5b600061255b84828501612361565b91505092915050565b60006020828403121561257a57612579612167565b5b60006125888482850161232b565b91505092915050565b61259a81612500565b81146125a557600080fd5b50565b6000813590506125b781612591565b92915050565b600080600080600080600060e0888a0312156125dc576125db612167565b5b60006125ea8a828b0161232b565b97505060206125fb8a828b0161232b565b965050604061260c8a828b01612361565b955050606061261d8a828b01612361565b945050608061262e8a828b016125a8565b93505060a061263f8a828b01612454565b92505060c06126508a828b01612454565b91505092959891949750929550565b6000806040838503121561267657612675612167565b5b60006126848582860161232b565b92505060206126958582860161232b565b9150509250929050565b7f4e487b7100000000000000000000000000000000000000000000000000000000600052602260045260246000fd5b600060028204905060018216806126e657607f821691505b6020821081036126f9576126f861269f565b5b50919050565b7f416363657373436f6e74726f6c3a2063616e206f6e6c792072656e6f756e636560008201527f20726f6c657320666f722073656c660000000000000000000000000000000000602082015250565b600061275b602f83612232565b9150612766826126ff565b604082019050919050565b6000602082019050818103600083015261278a8161274e565b9050919050565b7f4e487b7100000000000000000000000000000000000000000000000000000000600052601160045260246000fd5b60006127cb82612340565b91506127d683612340565b9250827fffffffffffffffffffffffffffffffffffffffffffffffffffffffffffffffff0382111561280b5761280a612791565b5b828201905092915050565b7f45524332303a2064656372656173656420616c6c6f77616e63652062656c6f7760008201527f207a65726f000000000000000000000000000000000000000000000000000000602082015250565b6000612872602583612232565b915061287d82612816565b604082019050919050565b600060208201905081810360008301526128a181612865565b9050919050565b7f45524332305065726d69743a206578706972656420646561646c696e65000000600082015250565b60006128de601d83612232565b91506128e9826128a8565b602082019050919050565b6000602082019050818103600083015261290d816128d1565b9050919050565b61291d81612302565b82525050565b600060c0820190506129386000830189612496565b6129456020830188612914565b6129526040830187612914565b61295f60608301866123b6565b61296c60808301856123b6565b61297960a08301846123b6565b979650505050505050565b7f45524332305065726d69743a20696e76616c6964207369676e61747572650000600082015250565b60006129ba601e83612232565b91506129c582612984565b602082019050919050565b600060208201905081810360008301526129e9816129ad565b9050919050565b7f45524332303a20617070726f76652066726f6d20746865207a65726f2061646460008201527f7265737300000000000000000000000000000000000000000000000000000000602082015250565b6000612a4c602483612232565b9150612a57826129f0565b604082019050919050565b60006020820190508181036000830152612a7b81612a3f565b9050919050565b7f45524332303a20617070726f766520746f20746865207a65726f20616464726560008201527f7373000000000000000000000000000000000000000000000000000000000000602082015250565b6000612ade602283612232565b9150612ae982612a82565b604082019050919050565b60006020820190508181036000830152612b0d81612ad1565b9050919050565b7f45524332303a20696e73756666696369656e7420616c6c6f77616e6365000000600082015250565b6000612b4a601d83612232565b9150612b5582612b14565b602082019050919050565b60006020820190508181036000830152612b7981612b3d565b9050919050565b7f45524332303a207472616e736665722066726f6d20746865207a65726f20616460008201527f6472657373000000000000000000000000000000000000000000000000000000602082015250565b6000612bdc602583612232565b9150612be782612b80565b604082019050919050565b60006020820190508181036000830152612c0b81612bcf565b9050919050565b7f45524332303a207472616e7366657220746f20746865207a65726f206164647260008201527f6573730000000000000000000000000000000000000000000000000000000000602082015250565b6000612c6e602383612232565b9150612c7982612c12565b604082019050919050565b60006020820190508181036000830152612c9d81612c61565b9050919050565b7f45524332303a207472616e7366657220616d6f756e742065786365656473206260008201527f616c616e63650000000000000000000000000000000000000000000000000000602082015250565b6000612d00602683612232565b9150612d0b82612ca4565b604082019050919050565b60006020820190508181036000830152612d2f81612cf3565b9050919050565b6000602082019050612d4b6000830184612914565b92915050565b7f45524332303a206d696e7420746f20746865207a65726f206164647265737300600082015250565b6000612d87601f83612232565b9150612d9282612d51565b602082019050919050565b60006020820190508181036000830152612db681612d7a565b9050919050565b7f45524332303a206275726e2066726f6d20746865207a65726f2061646472657360008201527f7300000000000000000000000000000000000000000000000000000000000000602082015250565b6000612e19602183612232565b9150612e2482612dbd565b604082019050919050565b60006020820190508181036000830152612e4881612e0c565b9050919050565b7f45524332303a206275726e20616d6f756e7420657863656564732062616c616e60008201527f6365000000000000000000000000000000000000000000000000000000000000602082015250565b6000612eab602283612232565b9150612eb682612e4f565b604082019050919050565b60006020820190508181036000830152612eda81612e9e565b9050919050565b6000612eec82612340565b9150612ef783612340565b925082821015612f0a57612f09612791565b5b828203905092915050565b600081905092915050565b7f416363657373436f6e74726f6c3a206163636f756e7420000000000000000000600082015250565b6000612f56601783612f15565b9150612f6182612f20565b601782019050919050565b6000612f7782612227565b612f818185612f15565b9350612f91818560208601612243565b80840191505092915050565b7f206973206d697373696e6720726f6c6520000000000000000000000000000000600082015250565b6000612fd3601183612f15565b9150612fde82612f9d565b601182019050919050565b6000612ff482612f49565b91506130008285612f6c565b915061300b82612fc6565b91506130178284612f6c565b91508190509392505050565b600060a0820190506130386000830188612496565b6130456020830187612496565b6130526040830186612496565b61305f60608301856123b6565b61306c6080830184612914565b9695505050505050565b7f5061757361626c653a206e6f7420706175736564000000000000000000000000600082015250565b60006130ac601483612232565b91506130b782613076565b602082019050919050565b600060208201905081810360008301526130db8161309f565b9050919050565b7f5061757361626c653a2070617573656400000000000000000000000000000000600082015250565b6000613118601083612232565b9150613123826130e2565b602082019050919050565b600060208201905081810360008301526131478161310b565b9050919050565b7f1901000000000000000000000000000000000000000000000000000000000000600082015250565b6000613184600283612f15565b915061318f8261314e565b600282019050919050565b6000819050919050565b6131b56131b082612433565b61319a565b82525050565b60006131c682613177565b91506131d282856131a4565b6020820191506131e282846131a4565b6020820191508190509392505050565b60006080820190506132076000830187612496565b613214602083018661250d565b6132216040830185612496565b61322e6060830184612496565b95945050505050565b7f4e487b7100000000000000000000000000000000000000000000000000000000600052602160045260246000fd5b7f45434453413a20696e76616c6964207369676e61747572650000000000000000600082015250565b600061329c601883612232565b91506132a782613266565b602082019050919050565b600060208201905081810360008301526132cb8161328f565b9050919050565b7f45434453413a20696e76616c6964207369676e6174757265206c656e67746800600082015250565b6000613308601f83612232565b9150613313826132d2565b602082019050919050565b60006020820190508181036000830152613337816132fb565b9050919050565b7f45434453413a20696e76616c6964207369676e6174757265202773272076616c60008201527f7565000000000000000000000000000000000000000000000000000000000000602082015250565b600061339a602283612232565b91506133a58261333e565b604082019050919050565b600060208201905081810360008301526133c98161338d565b9050919050565b7f45434453413a20696e76616c6964207369676e6174757265202776272076616c60008201527f7565000000000000000000000000000000000000000000000000000000000000602082015250565b600061342c602283612232565b9150613437826133d0565b604082019050919050565b6000602082019050818103600083015261345b8161341f565b9050919050565b600061346d82612340565b915061347883612340565b9250817fffffffffffffffffffffffffffffffffffffffffffffffffffffffffffffffff04831182151516156134b1576134b0612791565b5b828202905092915050565b7f4e487b7100000000000000000000000000000000000000000000000000000000600052604160045260246000fd5b7f4e487b7100000000000000000000000000000000000000000000000000000000600052603260045260246000fd5b600061352582612340565b91506000820361353857613537612791565b5b600182039050919050565b7f537472696e67733a20686578206c656e67746820696e73756666696369656e74600082015250565b6000613579602083612232565b915061358482613543565b602082019050919050565b600060208201905081810360008301526135a88161356c565b905091905056fea2646970667358221220ddd0d57bb5bd30c8da1d87045387bf3cf5805c96f80d3846198d4c45e7dd7b9364736f6c634300080e0033",
  "immutableReferences": {
    "2334": [
      {
        "length": 32,
        "start": 5214
      }
    ],
    "2336": [
      {
        "length": 32,
        "start": 5173
      }
    ],
    "2338": [
      {
        "length": 32,
        "start": 5087
      }
    ],
    "2340": [
      {
        "length": 32,
        "start": 5290
      }
    ],
    "2342": [
      {
        "length": 32,
        "start": 5323
      }
    ],
    "2344": [
      {
        "length": 32,
        "start": 5257
      }
    ]
  },
  "source": "// SPDX-License-Identifier: MIT\npragma solidity ^0.8.4;\n\nimport \"../node_modules/@openzeppelin/contracts/token/ERC20/ERC20.sol\";\nimport \"../node_modules/@openzeppelin/contracts/token/ERC20/extensions/ERC20Burnable.sol\";\nimport \"../node_modules/@openzeppelin/contracts/security/Pausable.sol\";\nimport \"../node_modules/@openzeppelin/contracts/access/AccessControl.sol\";\nimport \"../node_modules/@openzeppelin/contracts/token/ERC20/extensions/draft-ERC20Permit.sol\";\n\ncontract FXControllableToken is ERC20, ERC20Burnable, Pausable, AccessControl, ERC20Permit {\n    bytes32 public constant PAUSER_ROLE = keccak256(\"PAUSER_ROLE\");\n    bytes32 public constant MINTER_ROLE = keccak256(\"MINTER_ROLE\");\n\n    constructor()\n        ERC20(\"FXControllableToken\", \"FXC\")\n        ERC20Permit(\"FXControllableToken\")\n    {\n        _grantRole(DEFAULT_ADMIN_ROLE, msg.sender);\n        _grantRole(PAUSER_ROLE, msg.sender);\n        _mint(msg.sender, 100000000 * 10 ** decimals());\n        _grantRole(MINTER_ROLE, msg.sender);\n    }\n\n    function pause() public onlyRole(PAUSER_ROLE) {\n        _pause();\n    }\n\n    function unpause() public onlyRole(PAUSER_ROLE) {\n        _unpause();\n    }\n\n    function mint(address to, uint256 amount) public onlyRole(MINTER_ROLE) {\n        _mint(to, amount);\n    }\n\n    function _beforeTokenTransfer(address from, address to, uint256 amount)\n        internal\n        whenNotPaused\n        override\n    {\n        super._beforeTokenTransfer(from, to, amount);\n    }\n}\n",
  "sourcePath": "/Users/zhengxw1/Documents/web3/truffle/controllable-token/contracts/FXControllableToken.sol",
  "compiler": {
    "name": "solc",
    "version": "0.8.14+commit.80d49f37.Emscripten.clang"
  },
  "schemaVersion": "3.4.7",
  "updatedAt": "2022-07-12T03:54:08.563Z",
  "networkType": "ethereum",
  "devdoc": {
    "kind": "dev",
    "methods": {
      "DOMAIN_SEPARATOR()": {
        "details": "See {IERC20Permit-DOMAIN_SEPARATOR}."
      },
      "allowance(address,address)": {
        "details": "See {IERC20-allowance}."
      },
      "approve(address,uint256)": {
        "details": "See {IERC20-approve}. NOTE: If `amount` is the maximum `uint256`, the allowance is not updated on `transferFrom`. This is semantically equivalent to an infinite approval. Requirements: - `spender` cannot be the zero address."
      },
      "balanceOf(address)": {
        "details": "See {IERC20-balanceOf}."
      },
      "burn(uint256)": {
        "details": "Destroys `amount` tokens from the caller. See {ERC20-_burn}."
      },
      "burnFrom(address,uint256)": {
        "details": "Destroys `amount` tokens from `account`, deducting from the caller's allowance. See {ERC20-_burn} and {ERC20-allowance}. Requirements: - the caller must have allowance for ``accounts``'s tokens of at least `amount`."
      },
      "decimals()": {
        "details": "Returns the number of decimals used to get its user representation. For example, if `decimals` equals `2`, a balance of `505` tokens should be displayed to a user as `5.05` (`505 / 10 ** 2`). Tokens usually opt for a value of 18, imitating the relationship between Ether and Wei. This is the value {ERC20} uses, unless this function is overridden; NOTE: This information is only used for _display_ purposes: it in no way affects any of the arithmetic of the contract, including {IERC20-balanceOf} and {IERC20-transfer}."
      },
      "decreaseAllowance(address,uint256)": {
        "details": "Atomically decreases the allowance granted to `spender` by the caller. This is an alternative to {approve} that can be used as a mitigation for problems described in {IERC20-approve}. Emits an {Approval} event indicating the updated allowance. Requirements: - `spender` cannot be the zero address. - `spender` must have allowance for the caller of at least `subtractedValue`."
      },
      "getRoleAdmin(bytes32)": {
        "details": "Returns the admin role that controls `role`. See {grantRole} and {revokeRole}. To change a role's admin, use {_setRoleAdmin}."
      },
      "grantRole(bytes32,address)": {
        "details": "Grants `role` to `account`. If `account` had not been already granted `role`, emits a {RoleGranted} event. Requirements: - the caller must have ``role``'s admin role. May emit a {RoleGranted} event."
      },
      "hasRole(bytes32,address)": {
        "details": "Returns `true` if `account` has been granted `role`."
      },
      "increaseAllowance(address,uint256)": {
        "details": "Atomically increases the allowance granted to `spender` by the caller. This is an alternative to {approve} that can be used as a mitigation for problems described in {IERC20-approve}. Emits an {Approval} event indicating the updated allowance. Requirements: - `spender` cannot be the zero address."
      },
      "name()": {
        "details": "Returns the name of the token."
      },
      "nonces(address)": {
        "details": "See {IERC20Permit-nonces}."
      },
      "paused()": {
        "details": "Returns true if the contract is paused, and false otherwise."
      },
      "permit(address,address,uint256,uint256,uint8,bytes32,bytes32)": {
        "details": "See {IERC20Permit-permit}."
      },
      "renounceRole(bytes32,address)": {
        "details": "Revokes `role` from the calling account. Roles are often managed via {grantRole} and {revokeRole}: this function's purpose is to provide a mechanism for accounts to lose their privileges if they are compromised (such as when a trusted device is misplaced). If the calling account had been revoked `role`, emits a {RoleRevoked} event. Requirements: - the caller must be `account`. May emit a {RoleRevoked} event."
      },
      "revokeRole(bytes32,address)": {
        "details": "Revokes `role` from `account`. If `account` had been granted `role`, emits a {RoleRevoked} event. Requirements: - the caller must have ``role``'s admin role. May emit a {RoleRevoked} event."
      },
      "supportsInterface(bytes4)": {
        "details": "See {IERC165-supportsInterface}."
      },
      "symbol()": {
        "details": "Returns the symbol of the token, usually a shorter version of the name."
      },
      "totalSupply()": {
        "details": "See {IERC20-totalSupply}."
      },
      "transfer(address,uint256)": {
        "details": "See {IERC20-transfer}. Requirements: - `to` cannot be the zero address. - the caller must have a balance of at least `amount`."
      },
      "transferFrom(address,address,uint256)": {
        "details": "See {IERC20-transferFrom}. Emits an {Approval} event indicating the updated allowance. This is not required by the EIP. See the note at the beginning of {ERC20}. NOTE: Does not update the allowance if the current allowance is the maximum `uint256`. Requirements: - `from` and `to` cannot be the zero address. - `from` must have a balance of at least `amount`. - the caller must have allowance for ``from``'s tokens of at least `amount`."
      }
    },
    "version": 1
  },
  "userdoc": {
    "kind": "user",
    "methods": {},
    "version": 1
  }
}